{
  "contractName": "Country",
  "abi": [
    {
      "constant": true,
      "inputs": [],
      "name": "countryName",
      "outputs": [
        {
          "name": "",
          "type": "string"
        }
      ],
      "payable": false,
      "stateMutability": "view",
      "type": "function"
    },
    {
      "constant": true,
      "inputs": [
        {
          "name": "",
          "type": "uint256"
        }
      ],
      "name": "presidents",
      "outputs": [
        {
          "name": "name",
          "type": "string"
        },
        {
          "name": "bank",
          "type": "address"
        },
        {
          "name": "inaugerationDate",
          "type": "uint256"
        },
        {
          "name": "bribeAmountWei",
          "type": "uint256"
        }
      ],
      "payable": false,
      "stateMutability": "view",
      "type": "function"
    },
    {
      "inputs": [
        {
          "name": "_countryName",
          "type": "string"
        }
      ],
      "payable": false,
      "stateMutability": "nonpayable",
      "type": "constructor"
    },
    {
      "anonymous": false,
      "inputs": [
        {
          "indexed": false,
          "name": "monarchNumber",
          "type": "uint256"
        }
      ],
      "name": "ImpeachmentEvent",
      "type": "event"
    },
    {
      "anonymous": false,
      "inputs": [
        {
          "indexed": false,
          "name": "addr",
          "type": "address"
        },
        {
          "indexed": false,
          "name": "WeiAmount",
          "type": "uint256"
        }
      ],
      "name": "BribeOfferedEvent",
      "type": "event"
    },
    {
      "anonymous": false,
      "inputs": [
        {
          "indexed": false,
          "name": "addr",
          "type": "address"
        },
        {
          "indexed": false,
          "name": "WeiAmount",
          "type": "uint256"
        }
      ],
      "name": "BribeRefusedEvent",
      "type": "event"
    },
    {
      "constant": true,
      "inputs": [
        {
          "name": "index",
          "type": "uint256"
        }
      ],
      "name": "getPresident",
      "outputs": [
        {
          "name": "",
          "type": "string"
        },
        {
          "name": "",
          "type": "address"
        },
        {
          "name": "",
          "type": "uint256"
        },
        {
          "name": "",
          "type": "uint256"
        }
      ],
      "payable": false,
      "stateMutability": "view",
      "type": "function"
    },
    {
      "constant": false,
      "inputs": [
        {
          "name": "_weiAmount",
          "type": "uint256"
        }
      ],
      "name": "bribeLatestPresident",
      "outputs": [],
      "payable": false,
      "stateMutability": "nonpayable",
      "type": "function"
    },
    {
      "constant": false,
      "inputs": [
        {
          "name": "_presidentName",
          "type": "string"
        }
      ],
      "name": "claimPresidency",
      "outputs": [],
      "payable": true,
      "stateMutability": "payable",
      "type": "function"
    }
  ],
  "bytecode": "0x606060405234156200001057600080fd5b60405162000e6738038062000e678339810160405280805182019190505080600090805190602001906200004692919062000141565b50600180548060010182816200005d9190620001c8565b9160005260206000209060040201600060806040519081016040528060206040519081016040528060008152508152602001600073ffffffffffffffffffffffffffffffffffffffff16815260200160008152602001600081525090919091506000820151816000019080519060200190620000db929190620001fd565b5060208201518160010160006101000a81548173ffffffffffffffffffffffffffffffffffffffff021916908373ffffffffffffffffffffffffffffffffffffffff16021790555060408201518160020155606082015181600301555050505062000363565b828054600181600116156101000203166002900490600052602060002090601f016020900481019282601f106200018457805160ff1916838001178555620001b5565b82800160010185558215620001b5579182015b82811115620001b457825182559160200191906001019062000197565b5b509050620001c4919062000284565b5090565b815481835581811511620001f857600402816004028360005260206000209182019101620001f79190620002ac565b5b505050565b828054600181600116156101000203166002900490600052602060002090601f016020900481019282601f106200024057805160ff191683800117855562000271565b8280016001018555821562000271579182015b828111156200027057825182559160200191906001019062000253565b5b50905062000280919062000284565b5090565b620002a991905b80821115620002a55760008160009055506001016200028b565b5090565b90565b6200031491905b80821115620003105760008082016000620002cf919062000317565b6001820160006101000a81549073ffffffffffffffffffffffffffffffffffffffff02191690556002820160009055600382016000905550600401620002b3565b5090565b90565b50805460018160011615610100020316600290046000825580601f106200033f575062000360565b601f0160209004906000526020600020908101906200035f919062000284565b5b50565b610af480620003736000396000f30060606040526004361061006d576000357c0100000000000000000000000000000000000000000000000000000000900463ffffffff16806310ab2570146100725780633f8299571461014f578063a22c7aff146101dd578063c651dc2a146102d7578063f950c386146102fa575b600080fd5b341561007d57600080fd5b610093600480803590602001909190505061034c565b60405180806020018573ffffffffffffffffffffffffffffffffffffffff1673ffffffffffffffffffffffffffffffffffffffff168152602001848152602001838152602001828103825286818151815260200191508051906020019080838360005b838110156101115780820151818401526020810190506100f6565b50505050905090810190601f16801561013e5780820380516001836020036101000a031916815260200191505b509550505050505060405180910390f35b341561015a57600080fd5b6101626104a7565b6040518080602001828103825283818151815260200191508051906020019080838360005b838110156101a2578082015181840152602081019050610187565b50505050905090810190601f1680156101cf5780820380516001836020036101000a031916815260200191505b509250505060405180910390f35b34156101e857600080fd5b6101fe6004808035906020019091905050610545565b60405180806020018573ffffffffffffffffffffffffffffffffffffffff1673ffffffffffffffffffffffffffffffffffffffff1681526020018481526020018381526020018281038252868181546001816001161561010002031660029004815260200191508054600181600116156101000203166002900480156102c55780601f1061029a576101008083540402835291602001916102c5565b820191906000526020600020905b8154815290600101906020018083116102a857829003601f168201915b50509550505050505060405180910390f35b34156102e257600080fd5b6102f860048080359060200190919050506105a3565b005b61034a600480803590602001908201803590602001908080601f016020809104026020016040519081016040528093929190818152602001838380828437820191505050505050919050506105e7565b005b61035461092f565b600080600060018581548110151561036857fe5b906000526020600020906004020160000160018681548110151561038857fe5b906000526020600020906004020160010160009054906101000a900473ffffffffffffffffffffffffffffffffffffffff166001878154811015156103c957fe5b9060005260206000209060040201600201546001888154811015156103ea57fe5b906000526020600020906004020160030154838054600181600116156101000203166002900480601f0160208091040260200160405190810160405280929190818152602001828054600181600116156101000203166002900480156104915780601f1061046657610100808354040283529160200191610491565b820191906000526020600020905b81548152906001019060200180831161047457829003601f168201915b5050505050935093509350935093509193509193565b60008054600181600116156101000203166002900480601f01602080910402602001604051908101604052809291908181526020018280546001816001161561010002031660029004801561053d5780601f106105125761010080835404028352916020019161053d565b820191906000526020600020905b81548152906001019060200180831161052057829003601f168201915b505050505081565b60018181548110151561055457fe5b906000526020600020906004020160009150905080600001908060010160009054906101000a900473ffffffffffffffffffffffffffffffffffffffff16908060020154908060030154905084565b60006105ad6105f3565b60010160009054906101000a900473ffffffffffffffffffffffffffffffffffffffff169050816105dc6105f3565b600301819055505050565b6105f08161061d565b50565b600060018080805490500381548110151561060a57fe5b9060005260206000209060040201905090565b600080600033925034915061063061090e565b905060008373ffffffffffffffffffffffffffffffffffffffff16148061068257503073ffffffffffffffffffffffffffffffffffffffff168373ffffffffffffffffffffffffffffffffffffffff16145b156106f7577f9b571586849ea7a0c9e49d5ea011016ec5c2ea9ddc29641102bbf93ceffc34008334604051808373ffffffffffffffffffffffffffffffffffffffff1673ffffffffffffffffffffffffffffffffffffffff1681526020018281526020019250505060405180910390a1600080fd5b8082101561076f577f9b571586849ea7a0c9e49d5ea011016ec5c2ea9ddc29641102bbf93ceffc34008334604051808373ffffffffffffffffffffffffffffffffffffffff1673ffffffffffffffffffffffffffffffffffffffff1681526020018281526020019250505060405180910390a1600080fd5b6000821415156107ee577fb4ee5e89a80ed53e407dda5a9098e29ba1a265fdbf058db1e31ca8f7aa53904c8383604051808373ffffffffffffffffffffffffffffffffffffffff1673ffffffffffffffffffffffffffffffffffffffff1681526020018281526020019250505060405180910390a16107ed826105a3565b5b600180548060010182816108029190610943565b916000526020600020906004020160006080604051908101604052808881526020018773ffffffffffffffffffffffffffffffffffffffff168152602001428152602001858152509091909150600082015181600001908051906020019061086b929190610975565b5060208201518160010160006101000a81548173ffffffffffffffffffffffffffffffffffffffff021916908373ffffffffffffffffffffffffffffffffffffffff16021790555060408201518160020155606082015181600301555050507f9576b97baf4dcf2481245ea8fac6cd47217085a7be4fed0671e9419717a5fbbe60018080549050036040518082815260200191505060405180910390a150505050565b600080600061091b6105f3565b600301549150600a82019050809250505090565b602060405190810160405280600081525090565b8154818355818115116109705760040281600402836000526020600020918201910161096f91906109f5565b5b505050565b828054600181600116156101000203166002900490600052602060002090601f016020900481019282601f106109b657805160ff19168380011785556109e4565b828001600101855582156109e4579182015b828111156109e35782518255916020019190600101906109c8565b5b5090506109f19190610a5b565b5090565b610a5891905b80821115610a545760008082016000610a149190610a80565b6001820160006101000a81549073ffffffffffffffffffffffffffffffffffffffff021916905560028201600090556003820160009055506004016109fb565b5090565b90565b610a7d91905b80821115610a79576000816000905550600101610a61565b5090565b90565b50805460018160011615610100020316600290046000825580601f10610aa65750610ac5565b601f016020900490600052602060002090810190610ac49190610a5b565b5b505600a165627a7a723058203b808756acf75a1dc752295259de00553ebbf4d46d445bac6c2eb6eb2940da0d0029",
  "source": "//Democracy has broken down and as a result, the only way to gain power is to \n//convince the current president with bribery. \n\ncontract Country {\n    string public countryName;\n    \n    // They run the country \n    struct President {\n        string name;\n        //Where to send the ether too\n        address bank;\n        // When their rule began\n        uint inaugerationDate;\n        //How much they bribed\n        uint bribeAmountWei;\n    }\n    \n    President[] public presidents;\n    \n    event ImpeachmentEvent(uint monarchNumber);\n    event BribeOfferedEvent(address addr, uint WeiAmount);\n    event BribeRefusedEvent(address addr, uint WeiAmount);\n    \n    function Country(\n        string _countryName\n    ) {\n        countryName = _countryName;\n\n        // Dummy entry\n        presidents.push(\n            President(\n                \"\",\n                0,\n                0,\n                0\n            )\n        );\n    }\n    \n    function latestPresident() constant internal\n    returns (President storage president) {\n        return presidents[presidents.length - 1];\n    }\n\n    function getPresident(uint index) public constant \n    returns(string, address, uint, uint) {\n    return (presidents[index].name, presidents[index].bank, presidents[index].inaugerationDate, presidents[index].bribeAmountWei);\n    }\n    \n    function bribeRequired() constant internal\n    returns (uint amount) {\n        uint lastBribeAmountWei = latestPresident().bribeAmountWei;\n        uint newBribeAmountWei = lastBribeAmountWei + 10;\n        return newBribeAmountWei;\n    }\n        \n    function bribeLatestPresident(uint _weiAmount) {\n        address bankAddress =\n        latestPresident().bank;\n        // record that we compensated them\n        latestPresident().bribeAmountWei = _weiAmount;\n        \n        bankAddress.call.value(_weiAmount);\n    }\n    \n    function claimPresidency(string _presidentName) payable {\n        claimPresidencyInternal(_presidentName);\n    }\n    \n    function claimPresidencyInternal(\n        string _presidentName\n    ) internal {\n        address _bank = msg.sender;\n        uint paid = msg.value;\n        uint price = bribeRequired();\n\n        if (_bank == 0 || _bank == address(this)) {\n            BribeRefusedEvent(_bank, msg.value);\n            throw;\n        }\n\n        if (paid < price) {\n            BribeRefusedEvent(_bank, msg.value);\n            throw;\n        }\n\n        if (paid != 0) {\n            BribeOfferedEvent(_bank, paid);\n            bribeLatestPresident(paid);\n        }\n\n        presidents.push(President(\n            _presidentName,\n            _bank,\n            now,\n            price\n        ));\n\n        ImpeachmentEvent(presidents.length - 1);\n    }\n    \n}",
  "sourcePath": "/Users/summerjones/presidentOfEther/contracts/Country.sol",
  "compiler": {
    "name": "solc",
    "version": "0.4.19+commit.c4cbbb05.Emscripten.clang"
  },
  "schemaVersion": "2.0.0",
  "updatedAt": "2018-03-01T15:12:41.431Z"
}