{
  "contractName": "Country",
  "abi": [
    {
      "constant": true,
      "inputs": [],
      "name": "countryName",
      "outputs": [
        {
          "name": "",
          "type": "string"
        }
      ],
      "payable": false,
      "stateMutability": "view",
      "type": "function"
    },
    {
      "constant": true,
      "inputs": [
        {
          "name": "",
          "type": "uint256"
        }
      ],
      "name": "presidents",
      "outputs": [
        {
          "name": "name",
          "type": "string"
        },
        {
          "name": "bank",
          "type": "address"
        },
        {
          "name": "inaugerationDate",
          "type": "uint256"
        },
        {
          "name": "bribeAmountWei",
          "type": "uint256"
        }
      ],
      "payable": false,
      "stateMutability": "view",
      "type": "function"
    },
    {
      "inputs": [
        {
          "name": "_countryName",
          "type": "string"
        }
      ],
      "payable": false,
      "stateMutability": "nonpayable",
      "type": "constructor"
    },
    {
      "anonymous": false,
      "inputs": [
        {
          "indexed": false,
          "name": "monarchNumber",
          "type": "uint256"
        }
      ],
      "name": "ImpeachmentEvent",
      "type": "event"
    },
    {
      "anonymous": false,
      "inputs": [
        {
          "indexed": false,
          "name": "addr",
          "type": "address"
        },
        {
          "indexed": false,
          "name": "WeiAmount",
          "type": "uint256"
        }
      ],
      "name": "BribeOfferedEvent",
      "type": "event"
    },
    {
      "anonymous": false,
      "inputs": [
        {
          "indexed": false,
          "name": "addr",
          "type": "address"
        },
        {
          "indexed": false,
          "name": "WeiAmount",
          "type": "uint256"
        }
      ],
      "name": "BribeRefusedEvent",
      "type": "event"
    },
    {
      "constant": true,
      "inputs": [],
      "name": "currentPresident",
      "outputs": [
        {
          "name": "",
          "type": "string"
        },
        {
          "name": "",
          "type": "uint256"
        }
      ],
      "payable": false,
      "stateMutability": "view",
      "type": "function"
    },
    {
      "constant": true,
      "inputs": [],
      "name": "numberOfPresidents",
      "outputs": [
        {
          "name": "number",
          "type": "uint256"
        }
      ],
      "payable": false,
      "stateMutability": "view",
      "type": "function"
    },
    {
      "constant": false,
      "inputs": [
        {
          "name": "index",
          "type": "uint256"
        }
      ],
      "name": "getPresident",
      "outputs": [
        {
          "name": "",
          "type": "string"
        },
        {
          "name": "",
          "type": "address"
        },
        {
          "name": "",
          "type": "uint256"
        },
        {
          "name": "",
          "type": "uint256"
        }
      ],
      "payable": false,
      "stateMutability": "nonpayable",
      "type": "function"
    },
    {
      "constant": true,
      "inputs": [],
      "name": "bribeAmount",
      "outputs": [
        {
          "name": "amount",
          "type": "uint256"
        }
      ],
      "payable": false,
      "stateMutability": "view",
      "type": "function"
    },
    {
      "constant": false,
      "inputs": [
        {
          "name": "_weiAmount",
          "type": "uint256"
        }
      ],
      "name": "bribeLatestPresident",
      "outputs": [],
      "payable": false,
      "stateMutability": "nonpayable",
      "type": "function"
    },
    {
      "constant": false,
      "inputs": [
        {
          "name": "_presidentName",
          "type": "string"
        }
      ],
      "name": "claimPresidency",
      "outputs": [],
      "payable": true,
      "stateMutability": "payable",
      "type": "function"
    }
  ],
  "bytecode": "0x606060405234156200001057600080fd5b604051620010a5380380620010a58339810160405280805182019190505080600090805190602001906200004692919062000141565b50600180548060010182816200005d9190620001c8565b9160005260206000209060040201600060806040519081016040528060206040519081016040528060008152508152602001600073ffffffffffffffffffffffffffffffffffffffff16815260200160008152602001600081525090919091506000820151816000019080519060200190620000db929190620001fd565b5060208201518160010160006101000a81548173ffffffffffffffffffffffffffffffffffffffff021916908373ffffffffffffffffffffffffffffffffffffffff16021790555060408201518160020155606082015181600301555050505062000363565b828054600181600116156101000203166002900490600052602060002090601f016020900481019282601f106200018457805160ff1916838001178555620001b5565b82800160010185558215620001b5579182015b82811115620001b457825182559160200191906001019062000197565b5b509050620001c4919062000284565b5090565b815481835581811511620001f857600402816004028360005260206000209182019101620001f79190620002ac565b5b505050565b828054600181600116156101000203166002900490600052602060002090601f016020900481019282601f106200024057805160ff191683800117855562000271565b8280016001018555821562000271579182015b828111156200027057825182559160200191906001019062000253565b5b50905062000280919062000284565b5090565b620002a991905b80821115620002a55760008160009055506001016200028b565b5090565b90565b6200031491905b80821115620003105760008082016000620002cf919062000317565b6001820160006101000a81549073ffffffffffffffffffffffffffffffffffffffff02191690556002820160009055600382016000905550600401620002b3565b5090565b90565b50805460018160011615610100020316600290046000825580601f106200033f575062000360565b601f0160209004906000526020600020908101906200035f919062000284565b5b50565b610d3280620003736000396000f30060606040526004361061008e576000357c0100000000000000000000000000000000000000000000000000000000900463ffffffff16806310ab25701461009357806325e6b177146101705780633f8299571461019957806347ae53e214610227578063a22c7aff146102bc578063c651dc2a146103b6578063f5c43f1e146103d9578063f950c38614610402575b600080fd5b341561009e57600080fd5b6100b46004808035906020019091905050610454565b60405180806020018573ffffffffffffffffffffffffffffffffffffffff1673ffffffffffffffffffffffffffffffffffffffff168152602001848152602001838152602001828103825286818151815260200191508051906020019080838360005b83811015610132578082015181840152602081019050610117565b50505050905090810190601f16801561015f5780820380516001836020036101000a031916815260200191505b509550505050505060405180910390f35b341561017b57600080fd5b6101836105af565b6040518082815260200191505060405180910390f35b34156101a457600080fd5b6101ac6105bc565b6040518080602001828103825283818151815260200191508051906020019080838360005b838110156101ec5780820151818401526020810190506101d1565b50505050905090810190601f1680156102195780820380516001836020036101000a031916815260200191505b509250505060405180910390f35b341561023257600080fd5b61023a61065a565b6040518080602001838152602001828103825284818151815260200191508051906020019080838360005b83811015610280578082015181840152602081019050610265565b50505050905090810190601f1680156102ad5780820380516001836020036101000a031916815260200191505b50935050505060405180910390f35b34156102c757600080fd5b6102dd6004808035906020019091905050610755565b60405180806020018573ffffffffffffffffffffffffffffffffffffffff1673ffffffffffffffffffffffffffffffffffffffff1681526020018481526020018381526020018281038252868181546001816001161561010002031660029004815260200191508054600181600116156101000203166002900480156103a45780601f10610379576101008083540402835291602001916103a4565b820191906000526020600020905b81548152906001019060200180831161038757829003601f168201915b50509550505050505060405180910390f35b34156103c157600080fd5b6103d760048080359060200190919050506107b3565b005b34156103e457600080fd5b6103ec610816565b6040518082815260200191505060405180910390f35b610452600480803590602001908201803590602001908080601f01602080910402602001604051908101604052809392919081815260200183838082843782019150505050505091905050610825565b005b61045c610b6d565b600080600060018581548110151561047057fe5b906000526020600020906004020160000160018681548110151561049057fe5b906000526020600020906004020160010160009054906101000a900473ffffffffffffffffffffffffffffffffffffffff166001878154811015156104d157fe5b9060005260206000209060040201600201546001888154811015156104f257fe5b906000526020600020906004020160030154838054600181600116156101000203166002900480601f0160208091040260200160405190810160405280929190818152602001828054600181600116156101000203166002900480156105995780601f1061056e57610100808354040283529160200191610599565b820191906000526020600020905b81548152906001019060200180831161057c57829003601f168201915b5050505050935093509350935093509193509193565b6000600180549050905090565b60008054600181600116156101000203166002900480601f0160208091040260200160405190810160405280929190818152602001828054600181600116156101000203166002900480156106525780601f1061062757610100808354040283529160200191610652565b820191906000526020600020905b81548152906001019060200180831161063557829003601f168201915b505050505081565b610662610b6d565b600060018080805490500381548110151561067957fe5b906000526020600020906004020160000160018080805490500381548110151561069f57fe5b906000526020600020906004020160020154818054600181600116156101000203166002900480601f0160208091040260200160405190810160405280929190818152602001828054600181600116156101000203166002900480156107465780601f1061071b57610100808354040283529160200191610746565b820191906000526020600020905b81548152906001019060200180831161072957829003601f168201915b50505050509150915091509091565b60018181548110151561076457fe5b906000526020600020906004020160009150905080600001908060010160009054906101000a900473ffffffffffffffffffffffffffffffffffffffff16908060020154908060030154905084565b60006107bd610831565b60010160009054906101000a900473ffffffffffffffffffffffffffffffffffffffff169050816107ec610831565b600301819055508073ffffffffffffffffffffffffffffffffffffffff16826159d8905050505050565b600061082061085b565b905090565b61082e8161087c565b50565b600060018080805490500381548110151561084857fe5b9060005260206000209060040201905090565b6000806000610868610831565b600301549150600a82019050809250505090565b600080600033925034915061088f61085b565b905060008373ffffffffffffffffffffffffffffffffffffffff1614806108e157503073ffffffffffffffffffffffffffffffffffffffff168373ffffffffffffffffffffffffffffffffffffffff16145b15610956577f9b571586849ea7a0c9e49d5ea011016ec5c2ea9ddc29641102bbf93ceffc34008334604051808373ffffffffffffffffffffffffffffffffffffffff1673ffffffffffffffffffffffffffffffffffffffff1681526020018281526020019250505060405180910390a1600080fd5b808210156109ce577f9b571586849ea7a0c9e49d5ea011016ec5c2ea9ddc29641102bbf93ceffc34008334604051808373ffffffffffffffffffffffffffffffffffffffff1673ffffffffffffffffffffffffffffffffffffffff1681526020018281526020019250505060405180910390a1600080fd5b600082141515610a4d577fb4ee5e89a80ed53e407dda5a9098e29ba1a265fdbf058db1e31ca8f7aa53904c8383604051808373ffffffffffffffffffffffffffffffffffffffff1673ffffffffffffffffffffffffffffffffffffffff1681526020018281526020019250505060405180910390a1610a4c826107b3565b5b60018054806001018281610a619190610b81565b916000526020600020906004020160006080604051908101604052808881526020018773ffffffffffffffffffffffffffffffffffffffff1681526020014281526020018581525090919091506000820151816000019080519060200190610aca929190610bb3565b5060208201518160010160006101000a81548173ffffffffffffffffffffffffffffffffffffffff021916908373ffffffffffffffffffffffffffffffffffffffff16021790555060408201518160020155606082015181600301555050507f9576b97baf4dcf2481245ea8fac6cd47217085a7be4fed0671e9419717a5fbbe60018080549050036040518082815260200191505060405180910390a150505050565b602060405190810160405280600081525090565b815481835581811511610bae57600402816004028360005260206000209182019101610bad9190610c33565b5b505050565b828054600181600116156101000203166002900490600052602060002090601f016020900481019282601f10610bf457805160ff1916838001178555610c22565b82800160010185558215610c22579182015b82811115610c21578251825591602001919060010190610c06565b5b509050610c2f9190610c99565b5090565b610c9691905b80821115610c925760008082016000610c529190610cbe565b6001820160006101000a81549073ffffffffffffffffffffffffffffffffffffffff02191690556002820160009055600382016000905550600401610c39565b5090565b90565b610cbb91905b80821115610cb7576000816000905550600101610c9f565b5090565b90565b50805460018160011615610100020316600290046000825580601f10610ce45750610d03565b601f016020900490600052602060002090810190610d029190610c99565b5b505600a165627a7a72305820cdf7cf72f8a9bdee3e05c39c39b482d1f3f7f0d53880674fc10b798c07f007bb0029",
  "source": "//Democracy has broken down and as a result, the only way to gain power is to \n//convince the current president with bribery. \n\nimport 'zeppelin-solidity/contracts/math/SafeMath.sol';\n\npragma solidity ^0.4.19;\n\ncontract Country {\n    using SafeMath for uint;\n    string public countryName;\n    \n    // They run the country \n    struct President {\n        string name;\n        //Where to send the ether too\n        address bank;\n        // When their rule began\n        uint inaugerationDate;\n        //How much they bribed\n        uint bribeAmountWei;\n    }\n    \n    President[] public presidents;\n    \n    event ImpeachmentEvent(uint monarchNumber);\n    event BribeOfferedEvent(address addr, uint WeiAmount);\n    event BribeRefusedEvent(address addr, uint WeiAmount);\n    \n    function Country(\n        string _countryName\n    ) {\n        countryName = _countryName;\n\n        // Dummy entry\n        presidents.push(\n            President(\n                \"\",\n                0,\n                0,\n                0\n            )\n        );\n    }\n    \n    function latestPresident() constant internal\n    returns (President storage president) {\n        return presidents[presidents.length - 1];\n    }\n\n    function currentPresident() public constant\n    returns (string, uint) {\n        return (presidents[presidents.length - 1].name,presidents[presidents.length - 1].inaugerationDate);\n    }\n\n    function numberOfPresidents() public constant\n    returns (uint256 number) {\n        return presidents.length;\n    }\n\n    function getPresident(uint index) public \n    returns(string, address, uint, uint) {\n    return (presidents[index].name, presidents[index].bank, presidents[index].inaugerationDate, presidents[index].bribeAmountWei);\n    }\n    \n    function bribeRequired() constant internal\n    returns (uint amount) {\n        uint lastBribeAmountWei = latestPresident().bribeAmountWei;\n        uint newBribeAmountWei = lastBribeAmountWei + 10;\n        return newBribeAmountWei;\n    }\n\n    function bribeAmount() public constant\n    returns (uint256 amount) {\n        return bribeRequired();\n    }\n        \n    function bribeLatestPresident(uint _weiAmount) {\n        address bankAddress =\n        latestPresident().bank;\n        // record that we compensated them\n        latestPresident().bribeAmountWei = _weiAmount;\n        \n        bankAddress.call.value(_weiAmount).gas(23000);\n    }\n    \n    function claimPresidency(string _presidentName) payable {\n        claimPresidencyInternal(_presidentName);\n    }\n    \n    function claimPresidencyInternal(\n        string _presidentName\n    ) internal {\n        address _bank = msg.sender;\n        uint paid = msg.value;\n        uint price = bribeRequired();\n\n        if (_bank == 0 || _bank == address(this)) {\n            BribeRefusedEvent(_bank, msg.value);\n            throw;\n        }\n\n        if (paid < price) {\n            BribeRefusedEvent(_bank, msg.value);\n            throw;\n        }\n\n        if (paid != 0) {\n            BribeOfferedEvent(_bank, paid);\n            bribeLatestPresident(paid);\n        }\n\n        presidents.push(President(\n            _presidentName,\n            _bank,\n            now,\n            price\n        ));\n\n        ImpeachmentEvent(presidents.length - 1);\n    }\n    \n}",
  "sourcePath": "/Users/summerjones/presidentOfEther/contracts/Country.sol",
  "compiler": {
    "name": "solc",
    "version": "0.4.19+commit.c4cbbb05.Emscripten.clang"
  },
  "schemaVersion": "2.0.0",
  "updatedAt": "2018-03-05T13:50:20.622Z"
}